{
  "transactions": [
    {
      "hash": "0x758644ec6c5c6760d664289d3eb347a179295873d6c0264c866bce71e3657af5",
      "transactionType": "CALL",
      "contractName": null,
      "contractAddress": "0xc74786dcdf8851558e8058c14aa45bc408252c4a",
      "function": "mintCarbonCreditBasedOnDispatch(address,uint256,uint256)",
      "arguments": [
        "0x076ba152C39466071C2f080b52ff3dE89184bd16",
        "5000000000000000",
        "1"
      ],
      "transaction": {
        "from": "0x0c3743ac31156269ea0ea04bdb1864645017a92b",
        "to": "0xc74786dcdf8851558e8058c14aa45bc408252c4a",
        "gas": "0x3ff08",
        "value": "0x0",
        "input": "0x9fec7dfe000000000000000000000000076ba152c39466071c2f080b52ff3de89184bd160000000000000000000000000000000000000000000000000011c37937e080000000000000000000000000000000000000000000000000000000000000000001",
        "nonce": "0xe3",
        "chainId": "0xaa36a7"
      },
      "additionalContracts": [],
      "isFixedGasLimit": false
    }
  ],
  "receipts": [
    {
      "status": "0x1",
      "cumulativeGasUsed": "0x8892f8",
      "logs": [
        {
          "address": "0xc74786dcdf8851558e8058c14aa45bc408252c4a",
          "topics": [
            "0xddf252ad1be2c89b69c2b068fc378daa952ba7f163c4a11628f55a4df523b3ef",
            "0x0000000000000000000000000000000000000000000000000000000000000000",
            "0x000000000000000000000000076ba152c39466071c2f080b52ff3de89184bd16"
          ],
          "data": "0x0000000000000000000000000000000000000000000000000011c37937e08000",
          "blockHash": "0xd8bee9eff3449b3c31c1abc6a1dd972627fec4395622aa28612cba8b5f3964f0",
          "blockNumber": "0x9126ae",
          "blockTimestamp": "0x69017994",
          "transactionHash": "0x758644ec6c5c6760d664289d3eb347a179295873d6c0264c866bce71e3657af5",
          "transactionIndex": "0x25",
          "logIndex": "0x43",
          "removed": false
        },
        {
          "address": "0xc74786dcdf8851558e8058c14aa45bc408252c4a",
          "topics": [
            "0x9d6b4e3c26de54ae490b863c1092ea5c48bdb837072cdc52a729fc13d4366f41",
            "0x000000000000000000000000076ba152c39466071c2f080b52ff3de89184bd16"
          ],
          "data": "0x0000000000000000000000000000000000000000000000000011c37937e0800000000000000000000000000000000000000000000000000000000000000000010000000000000000000000000000000000000000000000000000000069017994",
          "blockHash": "0xd8bee9eff3449b3c31c1abc6a1dd972627fec4395622aa28612cba8b5f3964f0",
          "blockNumber": "0x9126ae",
          "blockTimestamp": "0x69017994",
          "transactionHash": "0x758644ec6c5c6760d664289d3eb347a179295873d6c0264c866bce71e3657af5",
          "transactionIndex": "0x25",
          "logIndex": "0x44",
          "removed": false
        }
      ],
      "logsBloom": "0x00000100000000000000000000000020000000000000000000000000000000000000000000020000000000000000000000000000000000000000000000080000000000000000000000000008000000000000000000000100000000000000000000000000020000000040000000000800000000000000000000000010000000000000000000000000000000000000000000000000000000000000000000000000000000000000000000000000000000000000000000000080000000000000000000000002000000000000000000000000000000000000000000000000000020000000000000000000000000002000000000000000000000000000000000010000",
      "type": "0x2",
      "transactionHash": "0x758644ec6c5c6760d664289d3eb347a179295873d6c0264c866bce71e3657af5",
      "transactionIndex": "0x25",
      "blockHash": "0xd8bee9eff3449b3c31c1abc6a1dd972627fec4395622aa28612cba8b5f3964f0",
      "blockNumber": "0x9126ae",
      "gasUsed": "0x2bb83",
      "effectiveGasPrice": "0xf424a",
      "from": "0x0c3743ac31156269ea0ea04bdb1864645017a92b",
      "to": "0xc74786dcdf8851558e8058c14aa45bc408252c4a",
      "contractAddress": null
    }
  ],
  "libraries": [],
  "pending": [],
  "returns": {},
  "timestamp": 1761704354,
  "chain": 11155111,
  "commit": "afd0872"
}