{
  "transactions": [
    {
      "hash": "0x8abbe510109d2e0b85ffcb3854947eb136fc392998e89eb43b751b7866e1d46d",
      "transactionType": "CALL",
      "contractName": null,
      "contractAddress": "0xc74786dcdf8851558e8058c14aa45bc408252c4a",
      "function": "initializeAndStakeOperator(address)",
      "arguments": [
        "0x076ba152C39466071C2f080b52ff3dE89184bd16"
      ],
      "transaction": {
        "from": "0x0c3743ac31156269ea0ea04bdb1864645017a92b",
        "to": "0xc74786dcdf8851558e8058c14aa45bc408252c4a",
        "gas": "0x4189a",
        "value": "0x0",
        "input": "0x096cfa39000000000000000000000000076ba152c39466071c2f080b52ff3de89184bd16",
        "nonce": "0xe1",
        "chainId": "0xaa36a7"
      },
      "additionalContracts": [],
      "isFixedGasLimit": false
    }
  ],
  "receipts": [
    {
      "status": "0x1",
      "cumulativeGasUsed": "0xb82140",
      "logs": [
        {
          "address": "0xc74786dcdf8851558e8058c14aa45bc408252c4a",
          "topics": [
            "0xddf252ad1be2c89b69c2b068fc378daa952ba7f163c4a11628f55a4df523b3ef",
            "0x0000000000000000000000000000000000000000000000000000000000000000",
            "0x000000000000000000000000076ba152c39466071c2f080b52ff3de89184bd16"
          ],
          "data": "0x00000000000000000000000000000000000000000000000000038d7ea4c68000",
          "blockHash": "0x2abc2932661023deae806fb3142e0f944dfc6a8b193343d3a88b92b2990db0f0",
          "blockNumber": "0x911932",
          "blockTimestamp": "0x6900d740",
          "transactionHash": "0x8abbe510109d2e0b85ffcb3854947eb136fc392998e89eb43b751b7866e1d46d",
          "transactionIndex": "0x3e",
          "logIndex": "0x35",
          "removed": false
        },
        {
          "address": "0xc74786dcdf8851558e8058c14aa45bc408252c4a",
          "topics": [
            "0xddf252ad1be2c89b69c2b068fc378daa952ba7f163c4a11628f55a4df523b3ef",
            "0x000000000000000000000000076ba152c39466071c2f080b52ff3de89184bd16",
            "0x000000000000000000000000c74786dcdf8851558e8058c14aa45bc408252c4a"
          ],
          "data": "0x00000000000000000000000000000000000000000000000000038d7ea4c68000",
          "blockHash": "0x2abc2932661023deae806fb3142e0f944dfc6a8b193343d3a88b92b2990db0f0",
          "blockNumber": "0x911932",
          "blockTimestamp": "0x6900d740",
          "transactionHash": "0x8abbe510109d2e0b85ffcb3854947eb136fc392998e89eb43b751b7866e1d46d",
          "transactionIndex": "0x3e",
          "logIndex": "0x36",
          "removed": false
        },
        {
          "address": "0xc74786dcdf8851558e8058c14aa45bc408252c4a",
          "topics": [
            "0x2f8788117e7eff1d82e926ec794901d17c78024a50270940304540a733656f0d",
            "0x977237e6ddcfee09e025cbf6eeacc90e07e34e1db4b18889c1004499b80bcb5e",
            "0x000000000000000000000000076ba152c39466071c2f080b52ff3de89184bd16",
            "0x0000000000000000000000000c3743ac31156269ea0ea04bdb1864645017a92b"
          ],
          "data": "0x",
          "blockHash": "0x2abc2932661023deae806fb3142e0f944dfc6a8b193343d3a88b92b2990db0f0",
          "blockNumber": "0x911932",
          "blockTimestamp": "0x6900d740",
          "transactionHash": "0x8abbe510109d2e0b85ffcb3854947eb136fc392998e89eb43b751b7866e1d46d",
          "transactionIndex": "0x3e",
          "logIndex": "0x37",
          "removed": false
        },
        {
          "address": "0xc74786dcdf8851558e8058c14aa45bc408252c4a",
          "topics": [
            "0x4b4c9d6e2ef9fbd773c9e6c911968efd0e08e952d2c108939a257ed619ce27a3",
            "0x000000000000000000000000076ba152c39466071c2f080b52ff3de89184bd16"
          ],
          "data": "0x00000000000000000000000000000000000000000000000000038d7ea4c68000",
          "blockHash": "0x2abc2932661023deae806fb3142e0f944dfc6a8b193343d3a88b92b2990db0f0",
          "blockNumber": "0x911932",
          "blockTimestamp": "0x6900d740",
          "transactionHash": "0x8abbe510109d2e0b85ffcb3854947eb136fc392998e89eb43b751b7866e1d46d",
          "transactionIndex": "0x3e",
          "logIndex": "0x38",
          "removed": false
        }
      ],
      "logsBloom": "0x000001040000000000000000000000600000000000000000800000000000000000000000000200000000000000000000000000000000000000000000000000000000000000000000000000080400000000000000000000000000000000000000000000000200000000002000000008000000080000000000000000100000000000000000000000000000000000000000000000000000000a0000000000000000000000000010000000400000000000000000000000000080001000000000000000000002000000000000000000000000000000000000200100000000000020000000000000100000000000002800000000000000000000000000000000010000",
      "type": "0x2",
      "transactionHash": "0x8abbe510109d2e0b85ffcb3854947eb136fc392998e89eb43b751b7866e1d46d",
      "transactionIndex": "0x3e",
      "blockHash": "0x2abc2932661023deae806fb3142e0f944dfc6a8b193343d3a88b92b2990db0f0",
      "blockNumber": "0x911932",
      "gasUsed": "0x2f72c",
      "effectiveGasPrice": "0x10c8e4",
      "from": "0x0c3743ac31156269ea0ea04bdb1864645017a92b",
      "to": "0xc74786dcdf8851558e8058c14aa45bc408252c4a",
      "contractAddress": null
    }
  ],
  "libraries": [],
  "pending": [],
  "returns": {},
  "timestamp": 1761662788,
  "chain": 11155111,
  "commit": null
}