{
  "transactions": [
    {
      "hash": "0x13ef7ac24453770d13ce2d2ba6f33b8ba88158c083cc01656bc45d3beb9cf17e",
      "transactionType": "CALL",
      "contractName": null,
      "contractAddress": "0xc74786dcdf8851558e8058c14aa45bc408252c4a",
      "function": "initializeEnterprise(address)",
      "arguments": [
        "0x166BDD252a92a565ccd888De36D1E9570257a71b"
      ],
      "transaction": {
        "from": "0x0c3743ac31156269ea0ea04bdb1864645017a92b",
        "to": "0xc74786dcdf8851558e8058c14aa45bc408252c4a",
        "gas": "0x245ce",
        "value": "0x0",
        "input": "0x3ac1cc78000000000000000000000000166bdd252a92a565ccd888de36d1e9570257a71b",
        "nonce": "0xe2",
        "chainId": "0xaa36a7"
      },
      "additionalContracts": [],
      "isFixedGasLimit": false
    }
  ],
  "receipts": [
    {
      "status": "0x1",
      "cumulativeGasUsed": "0x7a4f86",
      "logs": [
        {
          "address": "0xc74786dcdf8851558e8058c14aa45bc408252c4a",
          "topics": [
            "0x2f8788117e7eff1d82e926ec794901d17c78024a50270940304540a733656f0d",
            "0xf010dd543d11bfc2bab49e9fbbaac2e71675679dad35f39ee4ab0b74f5e6e93c",
            "0x000000000000000000000000166bdd252a92a565ccd888de36d1e9570257a71b",
            "0x0000000000000000000000000c3743ac31156269ea0ea04bdb1864645017a92b"
          ],
          "data": "0x",
          "blockHash": "0xdc08ea373b67df2b384af43c812f97b49122922b77ee8f49ce6fab614a292bbc",
          "blockNumber": "0x912654",
          "blockTimestamp": "0x69017550",
          "transactionHash": "0x13ef7ac24453770d13ce2d2ba6f33b8ba88158c083cc01656bc45d3beb9cf17e",
          "transactionIndex": "0x3e",
          "logIndex": "0x59",
          "removed": false
        },
        {
          "address": "0xc74786dcdf8851558e8058c14aa45bc408252c4a",
          "topics": [
            "0x9ccbb3ffaf3b3e4dff070e6309ac55d0849974f84a2edd7d3e6d221c7527e1d5",
            "0x000000000000000000000000166bdd252a92a565ccd888de36d1e9570257a71b"
          ],
          "data": "0x",
          "blockHash": "0xdc08ea373b67df2b384af43c812f97b49122922b77ee8f49ce6fab614a292bbc",
          "blockNumber": "0x912654",
          "blockTimestamp": "0x69017550",
          "transactionHash": "0x13ef7ac24453770d13ce2d2ba6f33b8ba88158c083cc01656bc45d3beb9cf17e",
          "transactionIndex": "0x3e",
          "logIndex": "0x5a",
          "removed": false
        }
      ],
      "logsBloom": "0x00000104000000000004000000000020000000000000100000000000000000000080000000000000000000000000000000000000000000000000000000000000000000000008000100000000000000002000000000000000000000000200000000000000000000000000200000000000000000000000000000000000000000000000000000000000000000000000000000000000000000080000000000000000000000000010000000000000000000000000000000000080001000000000000000000000000000000000000000000000000000000020000100000000000000000000000000000000000000000000000000002000000000000000000000000000",
      "type": "0x2",
      "transactionHash": "0x13ef7ac24453770d13ce2d2ba6f33b8ba88158c083cc01656bc45d3beb9cf17e",
      "transactionIndex": "0x3e",
      "blockHash": "0xdc08ea373b67df2b384af43c812f97b49122922b77ee8f49ce6fab614a292bbc",
      "blockNumber": "0x912654",
      "gasUsed": "0x18dd1",
      "effectiveGasPrice": "0xf4249",
      "from": "0x0c3743ac31156269ea0ea04bdb1864645017a92b",
      "to": "0xc74786dcdf8851558e8058c14aa45bc408252c4a",
      "contractAddress": null
    }
  ],
  "libraries": [],
  "pending": [],
  "returns": {},
  "timestamp": 1761703249,
  "chain": 11155111,
  "commit": "afd0872"
}