{
  "transactions": [
    {
      "hash": "0x65da01064f2a306e2d4f394948d8fcca8811d5d0258ab5a47455019a1273f05e",
      "transactionType": "CALL",
      "contractName": null,
      "contractAddress": "0xc74786dcdf8851558e8058c14aa45bc408252c4a",
      "function": "sellCarbonCredit(address,uint256)",
      "arguments": [
        "0x166BDD252a92a565ccd888De36D1E9570257a71b",
        "2000000000000000"
      ],
      "transaction": {
        "from": "0x076ba152c39466071c2f080b52ff3de89184bd16",
        "to": "0xc74786dcdf8851558e8058c14aa45bc408252c4a",
        "gas": "0x24a47",
        "value": "0x0",
        "input": "0x957ce85a000000000000000000000000166bdd252a92a565ccd888de36d1e9570257a71b00000000000000000000000000000000000000000000000000071afd498d0000",
        "nonce": "0x0",
        "chainId": "0xaa36a7"
      },
      "additionalContracts": [],
      "isFixedGasLimit": false
    }
  ],
  "receipts": [
    {
      "status": "0x1",
      "cumulativeGasUsed": "0xf0cef7",
      "logs": [
        {
          "address": "0xc74786dcdf8851558e8058c14aa45bc408252c4a",
          "topics": [
            "0xddf252ad1be2c89b69c2b068fc378daa952ba7f163c4a11628f55a4df523b3ef",
            "0x000000000000000000000000076ba152c39466071c2f080b52ff3de89184bd16",
            "0x000000000000000000000000166bdd252a92a565ccd888de36d1e9570257a71b"
          ],
          "data": "0x00000000000000000000000000000000000000000000000000071afd498d0000",
          "blockHash": "0xca20f7b456f7e9b42bed06c3101ab0a9ea10f1c49af38ee55e84d6dc0e28f25a",
          "blockNumber": "0x91270f",
          "blockTimestamp": "0x69017e20",
          "transactionHash": "0x65da01064f2a306e2d4f394948d8fcca8811d5d0258ab5a47455019a1273f05e",
          "transactionIndex": "0x40",
          "logIndex": "0x6d",
          "removed": false
        },
        {
          "address": "0xc74786dcdf8851558e8058c14aa45bc408252c4a",
          "topics": [
            "0xe939d78cfaf1eb8267526879aefc6e84683f7be2cd62810e6f9551984ff37fd2",
            "0x000000000000000000000000076ba152c39466071c2f080b52ff3de89184bd16",
            "0x000000000000000000000000166bdd252a92a565ccd888de36d1e9570257a71b"
          ],
          "data": "0x00000000000000000000000000000000000000000000000000071afd498d00000000000000000000000000000000000000000000000000000000000069017e20",
          "blockHash": "0xca20f7b456f7e9b42bed06c3101ab0a9ea10f1c49af38ee55e84d6dc0e28f25a",
          "blockNumber": "0x91270f",
          "blockTimestamp": "0x69017e20",
          "transactionHash": "0x65da01064f2a306e2d4f394948d8fcca8811d5d0258ab5a47455019a1273f05e",
          "transactionIndex": "0x40",
          "logIndex": "0x6e",
          "removed": false
        }
      ],
      "logsBloom": "0x00000100000000000000000000000020000000000000000000001000000000000080000000420000000000000000000000000000000000000000000000000000000000000000000000000008000000002000000000000000000000000000000000000000000000000000000000000000000000000000000000000010000000000000000000000000000020000000000000000000000000000000000000000000000000000000000000000000000000000000000000000080000000000000000000000002000000000000000000000000000000000000000000000000000000000000000000000000000000002000000000002000000000000000000000010000",
      "type": "0x2",
      "transactionHash": "0x65da01064f2a306e2d4f394948d8fcca8811d5d0258ab5a47455019a1273f05e",
      "transactionIndex": "0x40",
      "blockHash": "0xca20f7b456f7e9b42bed06c3101ab0a9ea10f1c49af38ee55e84d6dc0e28f25a",
      "blockNumber": "0x91270f",
      "gasUsed": "0x1a875",
      "effectiveGasPrice": "0xf4249",
      "from": "0x076ba152c39466071c2f080b52ff3de89184bd16",
      "to": "0xc74786dcdf8851558e8058c14aa45bc408252c4a",
      "contractAddress": null
    }
  ],
  "libraries": [],
  "pending": [],
  "returns": {},
  "timestamp": 1761705507,
  "chain": 11155111,
  "commit": "afd0872"
}