{
  "transactions": [
    {
      "hash": "0x85777cf60023c4e7a72352a99d4e76c2752491870dced8ea5128242f721b527c",
      "transactionType": "CALL",
      "contractName": null,
      "contractAddress": "0xc74786dcdf8851558e8058c14aa45bc408252c4a",
      "function": "useCarbonCredits(uint256)",
      "arguments": [
        "1000000000000000"
      ],
      "transaction": {
        "from": "0x166bdd252a92a565ccd888de36d1e9570257a71b",
        "to": "0xc74786dcdf8851558e8058c14aa45bc408252c4a",
        "gas": "0x17c2c",
        "value": "0x0",
        "input": "0xcb87945600000000000000000000000000000000000000000000000000038d7ea4c68000",
        "nonce": "0x0",
        "chainId": "0xaa36a7"
      },
      "additionalContracts": [],
      "isFixedGasLimit": false
    }
  ],
  "receipts": [
    {
      "status": "0x1",
      "cumulativeGasUsed": "0x62faaa",
      "logs": [
        {
          "address": "0xc74786dcdf8851558e8058c14aa45bc408252c4a",
          "topics": [
            "0xddf252ad1be2c89b69c2b068fc378daa952ba7f163c4a11628f55a4df523b3ef",
            "0x000000000000000000000000166bdd252a92a565ccd888de36d1e9570257a71b",
            "0x0000000000000000000000000000000000000000000000000000000000000000"
          ],
          "data": "0x00000000000000000000000000000000000000000000000000038d7ea4c68000",
          "blockHash": "0xa2d26fb3c904fec7707f31b0f65e88a54a3b2a7ce1ccba38d01aaa93d22ad1f7",
          "blockNumber": "0x91274b",
          "blockTimestamp": "0x690180f0",
          "transactionHash": "0x85777cf60023c4e7a72352a99d4e76c2752491870dced8ea5128242f721b527c",
          "transactionIndex": "0x2f",
          "logIndex": "0x62",
          "removed": false
        },
        {
          "address": "0xc74786dcdf8851558e8058c14aa45bc408252c4a",
          "topics": [
            "0xf7b817bb63ce1c09ee13ecd40e9d1948beb78900debe06f0d3cf38c6057265f1",
            "0x000000000000000000000000166bdd252a92a565ccd888de36d1e9570257a71b"
          ],
          "data": "0x00000000000000000000000000000000000000000000000000038d7ea4c68000",
          "blockHash": "0xa2d26fb3c904fec7707f31b0f65e88a54a3b2a7ce1ccba38d01aaa93d22ad1f7",
          "blockNumber": "0x91274b",
          "blockTimestamp": "0x690180f0",
          "transactionHash": "0x85777cf60023c4e7a72352a99d4e76c2752491870dced8ea5128242f721b527c",
          "transactionIndex": "0x2f",
          "logIndex": "0x63",
          "removed": false
        }
      ],
      "logsBloom": "0x00000100000000000000000000000020000000000000000000000000000000000080000000000000000000000000000000000000000000000000000000000000000000000000000000000008000000002000000000000000000000000000080000000000020000000000000000000800000000000000000000000010000000000000000000000000000000000000000000000000000000000040000000000000000000000000000000000000000000000000000000000080000000000000000000000002000000000000000000000000000000000000000000020000000020000000000000000000000000000000000000002000000000000000000000000000",
      "type": "0x2",
      "transactionHash": "0x85777cf60023c4e7a72352a99d4e76c2752491870dced8ea5128242f721b527c",
      "transactionIndex": "0x2f",
      "blockHash": "0xa2d26fb3c904fec7707f31b0f65e88a54a3b2a7ce1ccba38d01aaa93d22ad1f7",
      "blockNumber": "0x91274b",
      "gasUsed": "0x1133e",
      "effectiveGasPrice": "0xf424a",
      "from": "0x166bdd252a92a565ccd888de36d1e9570257a71b",
      "to": "0xc74786dcdf8851558e8058c14aa45bc408252c4a",
      "contractAddress": null
    }
  ],
  "libraries": [],
  "pending": [],
  "returns": {},
  "timestamp": 1761706225,
  "chain": 11155111,
  "commit": "afd0872"
}